{
    "_format": "hh-sol-artifact-1",
    "contractName": "ComposableStablePool",
    "sourceName": "contracts/ComposableStablePool.sol",
    "abi": [
        {
            "inputs": [
                {
                    "components": [
                        {
                            "internalType": "contract IVault",
                            "name": "vault",
                            "type": "address"
                        },
                        {
                            "internalType": "contract IProtocolFeePercentagesProvider",
                            "name": "protocolFeeProvider",
                            "type": "address"
                        },
                        {
                            "internalType": "string",
                            "name": "name",
                            "type": "string"
                        },
                        {
                            "internalType": "string",
                            "name": "symbol",
                            "type": "string"
                        },
                        {
                            "internalType": "contract IERC20[]",
                            "name": "tokens",
                            "type": "address[]"
                        },
                        {
                            "internalType": "contract IRateProvider[]",
                            "name": "rateProviders",
                            "type": "address[]"
                        },
                        {
                            "internalType": "uint256[]",
                            "name": "tokenRateCacheDurations",
                            "type": "uint256[]"
                        },
                        {
                            "internalType": "bool[]",
                            "name": "exemptFromYieldProtocolFeeFlags",
                            "type": "bool[]"
                        },
                        {
                            "internalType": "uint256",
                            "name": "amplificationParameter",
                            "type": "uint256"
                        },
                        {
                            "internalType": "uint256",
                            "name": "swapFeePercentage",
                            "type": "uint256"
                        },
                        {
                            "internalType": "uint256",
                            "name": "pauseWindowDuration",
                            "type": "uint256"
                        },
                        {
                            "internalType": "uint256",
                            "name": "bufferPeriodDuration",
                            "type": "uint256"
                        },
                        {
                            "internalType": "address",
                            "name": "owner",
                            "type": "address"
                        },
                        {
                            "internalType": "string",
                            "name": "version",
                            "type": "string"
                        }
                    ],
                    "internalType": "struct ComposableStablePool.NewPoolParams",
                    "name": "params",
                    "type": "tuple"
                }
            ],
            "stateMutability": "nonpayable",
            "type": "constructor"
        },
        {
            "anonymous": false,
            "inputs": [
                {
                    "indexed": false,
                    "internalType": "uint256",
                    "name": "startValue",
                    "type": "uint256"
                },
                {
                    "indexed": false,
                    "internalType": "uint256",
                    "name": "endValue",
                    "type": "uint256"
                },
                {
                    "indexed": false,
                    "internalType": "uint256",
                    "name": "startTime",
                    "type": "uint256"
                },
                {
                    "indexed": false,
                    "internalType": "uint256",
                    "name": "endTime",
                    "type": "uint256"
                }
            ],
            "name": "AmpUpdateStarted",
            "type": "event"
        },
        {
            "anonymous": false,
            "inputs": [
                {
                    "indexed": false,
                    "internalType": "uint256",
                    "name": "currentValue",
                    "type": "uint256"
                }
            ],
            "name": "AmpUpdateStopped",
            "type": "event"
        },
        {
            "anonymous": false,
            "inputs": [
                {
                    "indexed": true,
                    "internalType": "address",
                    "name": "owner",
                    "type": "address"
                },
                {
                    "indexed": true,
                    "internalType": "address",
                    "name": "spender",
                    "type": "address"
                },
                {
                    "indexed": false,
                    "internalType": "uint256",
                    "name": "value",
                    "type": "uint256"
                }
            ],
            "name": "Approval",
            "type": "event"
        },
        {
            "anonymous": false,
            "inputs": [
                {
                    "indexed": false,
                    "internalType": "bool",
                    "name": "paused",
                    "type": "bool"
                }
            ],
            "name": "PausedStateChanged",
            "type": "event"
        },
        {
            "anonymous": false,
            "inputs": [
                {
                    "indexed": false,
                    "internalType": "bytes32",
                    "name": "feeCache",
                    "type": "bytes32"
                }
            ],
            "name": "ProtocolFeePercentageCacheUpdated",
            "type": "event"
        },
        {
            "anonymous": false,
            "inputs": [
                {
                    "indexed": false,
                    "internalType": "bool",
                    "name": "enabled",
                    "type": "bool"
                }
            ],
            "name": "RecoveryModeStateChanged",
            "type": "event"
        },
        {
            "anonymous": false,
            "inputs": [
                {
                    "indexed": false,
                    "internalType": "uint256",
                    "name": "swapFeePercentage",
                    "type": "uint256"
                }
            ],
            "name": "SwapFeePercentageChanged",
            "type": "event"
        },
        {
            "anonymous": false,
            "inputs": [
                {
                    "indexed": true,
                    "internalType": "uint256",
                    "name": "tokenIndex",
                    "type": "uint256"
                },
                {
                    "indexed": false,
                    "internalType": "uint256",
                    "name": "rate",
                    "type": "uint256"
                }
            ],
            "name": "TokenRateCacheUpdated",
            "type": "event"
        },
        {
            "anonymous": false,
            "inputs": [
                {
                    "indexed": true,
                    "internalType": "uint256",
                    "name": "tokenIndex",
                    "type": "uint256"
                },
                {
                    "indexed": true,
                    "internalType": "contract IRateProvider",
                    "name": "provider",
                    "type": "address"
                },
                {
                    "indexed": false,
                    "internalType": "uint256",
                    "name": "cacheDuration",
                    "type": "uint256"
                }
            ],
            "name": "TokenRateProviderSet",
            "type": "event"
        },
        {
            "anonymous": false,
            "inputs": [
                {
                    "indexed": true,
                    "internalType": "address",
                    "name": "from",
                    "type": "address"
                },
                {
                    "indexed": true,
                    "internalType": "address",
                    "name": "to",
                    "type": "address"
                },
                {
                    "indexed": false,
                    "internalType": "uint256",
                    "name": "value",
                    "type": "uint256"
                }
            ],
            "name": "Transfer",
            "type": "event"
        },
        {
            "inputs": [],
            "name": "DOMAIN_SEPARATOR",
            "outputs": [
                {
                    "internalType": "bytes32",
                    "name": "",
                    "type": "bytes32"
                }
            ],
            "stateMutability": "view",
            "type": "function"
        },
        {
            "inputs": [
                {
                    "internalType": "address",
                    "name": "owner",
                    "type": "address"
                },
                {
                    "internalType": "address",
                    "name": "spender",
                    "type": "address"
                }
            ],
            "name": "allowance",
            "outputs": [
                {
                    "internalType": "uint256",
                    "name": "",
                    "type": "uint256"
                }
            ],
            "stateMutability": "view",
            "type": "function"
        },
        {
            "inputs": [
                {
                    "internalType": "address",
                    "name": "spender",
                    "type": "address"
                },
                {
                    "internalType": "uint256",
                    "name": "amount",
                    "type": "uint256"
                }
            ],
            "name": "approve",
            "outputs": [
                {
                    "internalType": "bool",
                    "name": "",
                    "type": "bool"
                }
            ],
            "stateMutability": "nonpayable",
            "type": "function"
        },
        {
            "inputs": [
                {
                    "internalType": "address",
                    "name": "account",
                    "type": "address"
                }
            ],
            "name": "balanceOf",
            "outputs": [
                {
                    "internalType": "uint256",
                    "name": "",
                    "type": "uint256"
                }
            ],
            "stateMutability": "view",
            "type": "function"
        },
        {
            "inputs": [],
            "name": "decimals",
            "outputs": [
                {
                    "internalType": "uint8",
                    "name": "",
                    "type": "uint8"
                }
            ],
            "stateMutability": "view",
            "type": "function"
        },
        {
            "inputs": [
                {
                    "internalType": "address",
                    "name": "spender",
                    "type": "address"
                },
                {
                    "internalType": "uint256",
                    "name": "amount",
                    "type": "uint256"
                }
            ],
            "name": "decreaseAllowance",
            "outputs": [
                {
                    "internalType": "bool",
                    "name": "",
                    "type": "bool"
                }
            ],
            "stateMutability": "nonpayable",
            "type": "function"
        },
        {
            "inputs": [],
            "name": "disableRecoveryMode",
            "outputs": [],
            "stateMutability": "nonpayable",
            "type": "function"
        },
        {
            "inputs": [],
            "name": "enableRecoveryMode",
            "outputs": [],
            "stateMutability": "nonpayable",
            "type": "function"
        },
        {
            "inputs": [
                {
                    "internalType": "bytes4",
                    "name": "selector",
                    "type": "bytes4"
                }
            ],
            "name": "getActionId",
            "outputs": [
                {
                    "internalType": "bytes32",
                    "name": "",
                    "type": "bytes32"
                }
            ],
            "stateMutability": "view",
            "type": "function"
        },
        {
            "inputs": [],
            "name": "getActualSupply",
            "outputs": [
                {
                    "internalType": "uint256",
                    "name": "",
                    "type": "uint256"
                }
            ],
            "stateMutability": "view",
            "type": "function"
        },
        {
            "inputs": [],
            "name": "getAmplificationParameter",
            "outputs": [
                {
                    "internalType": "uint256",
                    "name": "value",
                    "type": "uint256"
                },
                {
                    "internalType": "bool",
                    "name": "isUpdating",
                    "type": "bool"
                },
                {
                    "internalType": "uint256",
                    "name": "precision",
                    "type": "uint256"
                }
            ],
            "stateMutability": "view",
            "type": "function"
        },
        {
            "inputs": [],
            "name": "getAuthorizer",
            "outputs": [
                {
                    "internalType": "contract IAuthorizer",
                    "name": "",
                    "type": "address"
                }
            ],
            "stateMutability": "view",
            "type": "function"
        },
        {
            "inputs": [],
            "name": "getBptIndex",
            "outputs": [
                {
                    "internalType": "uint256",
                    "name": "",
                    "type": "uint256"
                }
            ],
            "stateMutability": "view",
            "type": "function"
        },
        {
            "inputs": [],
            "name": "getDomainSeparator",
            "outputs": [
                {
                    "internalType": "bytes32",
                    "name": "",
                    "type": "bytes32"
                }
            ],
            "stateMutability": "view",
            "type": "function"
        },
        {
            "inputs": [],
            "name": "getLastJoinExitData",
            "outputs": [
                {
                    "internalType": "uint256",
                    "name": "lastJoinExitAmplification",
                    "type": "uint256"
                },
                {
                    "internalType": "uint256",
                    "name": "lastPostJoinExitInvariant",
                    "type": "uint256"
                }
            ],
            "stateMutability": "view",
            "type": "function"
        },
        {
            "inputs": [],
            "name": "getMinimumBpt",
            "outputs": [
                {
                    "internalType": "uint256",
                    "name": "",
                    "type": "uint256"
                }
            ],
            "stateMutability": "pure",
            "type": "function"
        },
        {
            "inputs": [
                {
                    "internalType": "address",
                    "name": "account",
                    "type": "address"
                }
            ],
            "name": "getNextNonce",
            "outputs": [
                {
                    "internalType": "uint256",
                    "name": "",
                    "type": "uint256"
                }
            ],
            "stateMutability": "view",
            "type": "function"
        },
        {
            "inputs": [],
            "name": "getOwner",
            "outputs": [
                {
                    "internalType": "address",
                    "name": "",
                    "type": "address"
                }
            ],
            "stateMutability": "view",
            "type": "function"
        },
        {
            "inputs": [],
            "name": "getPausedState",
            "outputs": [
                {
                    "internalType": "bool",
                    "name": "paused",
                    "type": "bool"
                },
                {
                    "internalType": "uint256",
                    "name": "pauseWindowEndTime",
                    "type": "uint256"
                },
                {
                    "internalType": "uint256",
                    "name": "bufferPeriodEndTime",
                    "type": "uint256"
                }
            ],
            "stateMutability": "view",
            "type": "function"
        },
        {
            "inputs": [],
            "name": "getPoolId",
            "outputs": [
                {
                    "internalType": "bytes32",
                    "name": "",
                    "type": "bytes32"
                }
            ],
            "stateMutability": "view",
            "type": "function"
        },
        {
            "inputs": [
                {
                    "internalType": "uint256",
                    "name": "feeType",
                    "type": "uint256"
                }
            ],
            "name": "getProtocolFeePercentageCache",
            "outputs": [
                {
                    "internalType": "uint256",
                    "name": "",
                    "type": "uint256"
                }
            ],
            "stateMutability": "view",
            "type": "function"
        },
        {
            "inputs": [],
            "name": "getProtocolFeesCollector",
            "outputs": [
                {
                    "internalType": "contract IProtocolFeesCollector",
                    "name": "",
                    "type": "address"
                }
            ],
            "stateMutability": "view",
            "type": "function"
        },
        {
            "inputs": [
                {
                    "internalType": "uint256",
                    "name": "feeType",
                    "type": "uint256"
                }
            ],
            "name": "getProviderFeeId",
            "outputs": [
                {
                    "internalType": "uint256",
                    "name": "",
                    "type": "uint256"
                }
            ],
            "stateMutability": "view",
            "type": "function"
        },
        {
            "inputs": [],
            "name": "getRate",
            "outputs": [
                {
                    "internalType": "uint256",
                    "name": "",
                    "type": "uint256"
                }
            ],
            "stateMutability": "view",
            "type": "function"
        },
        {
            "inputs": [],
            "name": "getRateProviders",
            "outputs": [
                {
                    "internalType": "contract IRateProvider[]",
                    "name": "",
                    "type": "address[]"
                }
            ],
            "stateMutability": "view",
            "type": "function"
        },
        {
            "inputs": [],
            "name": "getScalingFactors",
            "outputs": [
                {
                    "internalType": "uint256[]",
                    "name": "",
                    "type": "uint256[]"
                }
            ],
            "stateMutability": "view",
            "type": "function"
        },
        {
            "inputs": [],
            "name": "getSwapFeePercentage",
            "outputs": [
                {
                    "internalType": "uint256",
                    "name": "",
                    "type": "uint256"
                }
            ],
            "stateMutability": "view",
            "type": "function"
        },
        {
            "inputs": [
                {
                    "internalType": "contract IERC20",
                    "name": "token",
                    "type": "address"
                }
            ],
            "name": "getTokenRate",
            "outputs": [
                {
                    "internalType": "uint256",
                    "name": "",
                    "type": "uint256"
                }
            ],
            "stateMutability": "view",
            "type": "function"
        },
        {
            "inputs": [
                {
                    "internalType": "contract IERC20",
                    "name": "token",
                    "type": "address"
                }
            ],
            "name": "getTokenRateCache",
            "outputs": [
                {
                    "internalType": "uint256",
                    "name": "rate",
                    "type": "uint256"
                },
                {
                    "internalType": "uint256",
                    "name": "oldRate",
                    "type": "uint256"
                },
                {
                    "internalType": "uint256",
                    "name": "duration",
                    "type": "uint256"
                },
                {
                    "internalType": "uint256",
                    "name": "expires",
                    "type": "uint256"
                }
            ],
            "stateMutability": "view",
            "type": "function"
        },
        {
            "inputs": [],
            "name": "getVault",
            "outputs": [
                {
                    "internalType": "contract IVault",
                    "name": "",
                    "type": "address"
                }
            ],
            "stateMutability": "view",
            "type": "function"
        },
        {
            "inputs": [],
            "name": "inRecoveryMode",
            "outputs": [
                {
                    "internalType": "bool",
                    "name": "",
                    "type": "bool"
                }
            ],
            "stateMutability": "view",
            "type": "function"
        },
        {
            "inputs": [
                {
                    "internalType": "address",
                    "name": "spender",
                    "type": "address"
                },
                {
                    "internalType": "uint256",
                    "name": "addedValue",
                    "type": "uint256"
                }
            ],
            "name": "increaseAllowance",
            "outputs": [
                {
                    "internalType": "bool",
                    "name": "",
                    "type": "bool"
                }
            ],
            "stateMutability": "nonpayable",
            "type": "function"
        },
        {
            "inputs": [
                {
                    "internalType": "contract IERC20",
                    "name": "token",
                    "type": "address"
                }
            ],
            "name": "isTokenExemptFromYieldProtocolFee",
            "outputs": [
                {
                    "internalType": "bool",
                    "name": "",
                    "type": "bool"
                }
            ],
            "stateMutability": "view",
            "type": "function"
        },
        {
            "inputs": [],
            "name": "name",
            "outputs": [
                {
                    "internalType": "string",
                    "name": "",
                    "type": "string"
                }
            ],
            "stateMutability": "view",
            "type": "function"
        },
        {
            "inputs": [
                {
                    "internalType": "address",
                    "name": "owner",
                    "type": "address"
                }
            ],
            "name": "nonces",
            "outputs": [
                {
                    "internalType": "uint256",
                    "name": "",
                    "type": "uint256"
                }
            ],
            "stateMutability": "view",
            "type": "function"
        },
        {
            "inputs": [
                {
                    "internalType": "bytes32",
                    "name": "poolId",
                    "type": "bytes32"
                },
                {
                    "internalType": "address",
                    "name": "sender",
                    "type": "address"
                },
                {
                    "internalType": "address",
                    "name": "recipient",
                    "type": "address"
                },
                {
                    "internalType": "uint256[]",
                    "name": "balances",
                    "type": "uint256[]"
                },
                {
                    "internalType": "uint256",
                    "name": "lastChangeBlock",
                    "type": "uint256"
                },
                {
                    "internalType": "uint256",
                    "name": "protocolSwapFeePercentage",
                    "type": "uint256"
                },
                {
                    "internalType": "bytes",
                    "name": "userData",
                    "type": "bytes"
                }
            ],
            "name": "onExitPool",
            "outputs": [
                {
                    "internalType": "uint256[]",
                    "name": "",
                    "type": "uint256[]"
                },
                {
                    "internalType": "uint256[]",
                    "name": "",
                    "type": "uint256[]"
                }
            ],
            "stateMutability": "nonpayable",
            "type": "function"
        },
        {
            "inputs": [
                {
                    "internalType": "bytes32",
                    "name": "poolId",
                    "type": "bytes32"
                },
                {
                    "internalType": "address",
                    "name": "sender",
                    "type": "address"
                },
                {
                    "internalType": "address",
                    "name": "recipient",
                    "type": "address"
                },
                {
                    "internalType": "uint256[]",
                    "name": "balances",
                    "type": "uint256[]"
                },
                {
                    "internalType": "uint256",
                    "name": "lastChangeBlock",
                    "type": "uint256"
                },
                {
                    "internalType": "uint256",
                    "name": "protocolSwapFeePercentage",
                    "type": "uint256"
                },
                {
                    "internalType": "bytes",
                    "name": "userData",
                    "type": "bytes"
                }
            ],
            "name": "onJoinPool",
            "outputs": [
                {
                    "internalType": "uint256[]",
                    "name": "",
                    "type": "uint256[]"
                },
                {
                    "internalType": "uint256[]",
                    "name": "",
                    "type": "uint256[]"
                }
            ],
            "stateMutability": "nonpayable",
            "type": "function"
        },
        {
            "inputs": [
                {
                    "components": [
                        {
                            "internalType": "enum IVault.SwapKind",
                            "name": "kind",
                            "type": "uint8"
                        },
                        {
                            "internalType": "contract IERC20",
                            "name": "tokenIn",
                            "type": "address"
                        },
                        {
                            "internalType": "contract IERC20",
                            "name": "tokenOut",
                            "type": "address"
                        },
                        {
                            "internalType": "uint256",
                            "name": "amount",
                            "type": "uint256"
                        },
                        {
                            "internalType": "bytes32",
                            "name": "poolId",
                            "type": "bytes32"
                        },
                        {
                            "internalType": "uint256",
                            "name": "lastChangeBlock",
                            "type": "uint256"
                        },
                        {
                            "internalType": "address",
                            "name": "from",
                            "type": "address"
                        },
                        {
                            "internalType": "address",
                            "name": "to",
                            "type": "address"
                        },
                        {
                            "internalType": "bytes",
                            "name": "userData",
                            "type": "bytes"
                        }
                    ],
                    "internalType": "struct IPoolSwapStructs.SwapRequest",
                    "name": "swapRequest",
                    "type": "tuple"
                },
                {
                    "internalType": "uint256[]",
                    "name": "balances",
                    "type": "uint256[]"
                },
                {
                    "internalType": "uint256",
                    "name": "indexIn",
                    "type": "uint256"
                },
                {
                    "internalType": "uint256",
                    "name": "indexOut",
                    "type": "uint256"
                }
            ],
            "name": "onSwap",
            "outputs": [
                {
                    "internalType": "uint256",
                    "name": "",
                    "type": "uint256"
                }
            ],
            "stateMutability": "nonpayable",
            "type": "function"
        },
        {
            "inputs": [],
            "name": "pause",
            "outputs": [],
            "stateMutability": "nonpayable",
            "type": "function"
        },
        {
            "inputs": [
                {
                    "internalType": "address",
                    "name": "owner",
                    "type": "address"
                },
                {
                    "internalType": "address",
                    "name": "spender",
                    "type": "address"
                },
                {
                    "internalType": "uint256",
                    "name": "value",
                    "type": "uint256"
                },
                {
                    "internalType": "uint256",
                    "name": "deadline",
                    "type": "uint256"
                },
                {
                    "internalType": "uint8",
                    "name": "v",
                    "type": "uint8"
                },
                {
                    "internalType": "bytes32",
                    "name": "r",
                    "type": "bytes32"
                },
                {
                    "internalType": "bytes32",
                    "name": "s",
                    "type": "bytes32"
                }
            ],
            "name": "permit",
            "outputs": [],
            "stateMutability": "nonpayable",
            "type": "function"
        },
        {
            "inputs": [
                {
                    "internalType": "bytes32",
                    "name": "poolId",
                    "type": "bytes32"
                },
                {
                    "internalType": "address",
                    "name": "sender",
                    "type": "address"
                },
                {
                    "internalType": "address",
                    "name": "recipient",
                    "type": "address"
                },
                {
                    "internalType": "uint256[]",
                    "name": "balances",
                    "type": "uint256[]"
                },
                {
                    "internalType": "uint256",
                    "name": "lastChangeBlock",
                    "type": "uint256"
                },
                {
                    "internalType": "uint256",
                    "name": "protocolSwapFeePercentage",
                    "type": "uint256"
                },
                {
                    "internalType": "bytes",
                    "name": "userData",
                    "type": "bytes"
                }
            ],
            "name": "queryExit",
            "outputs": [
                {
                    "internalType": "uint256",
                    "name": "bptIn",
                    "type": "uint256"
                },
                {
                    "internalType": "uint256[]",
                    "name": "amountsOut",
                    "type": "uint256[]"
                }
            ],
            "stateMutability": "view",
            "type": "function"
        },
        {
            "inputs": [
                {
                    "internalType": "bytes32",
                    "name": "poolId",
                    "type": "bytes32"
                },
                {
                    "internalType": "address",
                    "name": "sender",
                    "type": "address"
                },
                {
                    "internalType": "address",
                    "name": "recipient",
                    "type": "address"
                },
                {
                    "internalType": "uint256[]",
                    "name": "balances",
                    "type": "uint256[]"
                },
                {
                    "internalType": "uint256",
                    "name": "lastChangeBlock",
                    "type": "uint256"
                },
                {
                    "internalType": "uint256",
                    "name": "protocolSwapFeePercentage",
                    "type": "uint256"
                },
                {
                    "internalType": "bytes",
                    "name": "userData",
                    "type": "bytes"
                }
            ],
            "name": "queryJoin",
            "outputs": [
                {
                    "internalType": "uint256",
                    "name": "bptOut",
                    "type": "uint256"
                },
                {
                    "internalType": "uint256[]",
                    "name": "amountsIn",
                    "type": "uint256[]"
                }
            ],
            "stateMutability": "view",
            "type": "function"
        },
        {
            "inputs": [
                {
                    "internalType": "uint256",
                    "name": "swapFeePercentage",
                    "type": "uint256"
                }
            ],
            "name": "setSwapFeePercentage",
            "outputs": [],
            "stateMutability": "nonpayable",
            "type": "function"
        },
        {
            "inputs": [
                {
                    "internalType": "contract IERC20",
                    "name": "token",
                    "type": "address"
                },
                {
                    "internalType": "uint256",
                    "name": "duration",
                    "type": "uint256"
                }
            ],
            "name": "setTokenRateCacheDuration",
            "outputs": [],
            "stateMutability": "nonpayable",
            "type": "function"
        },
        {
            "inputs": [
                {
                    "internalType": "uint256",
                    "name": "rawEndValue",
                    "type": "uint256"
                },
                {
                    "internalType": "uint256",
                    "name": "endTime",
                    "type": "uint256"
                }
            ],
            "name": "startAmplificationParameterUpdate",
            "outputs": [],
            "stateMutability": "nonpayable",
            "type": "function"
        },
        {
            "inputs": [],
            "name": "stopAmplificationParameterUpdate",
            "outputs": [],
            "stateMutability": "nonpayable",
            "type": "function"
        },
        {
            "inputs": [],
            "name": "symbol",
            "outputs": [
                {
                    "internalType": "string",
                    "name": "",
                    "type": "string"
                }
            ],
            "stateMutability": "view",
            "type": "function"
        },
        {
            "inputs": [],
            "name": "totalSupply",
            "outputs": [
                {
                    "internalType": "uint256",
                    "name": "",
                    "type": "uint256"
                }
            ],
            "stateMutability": "view",
            "type": "function"
        },
        {
            "inputs": [
                {
                    "internalType": "address",
                    "name": "recipient",
                    "type": "address"
                },
                {
                    "internalType": "uint256",
                    "name": "amount",
                    "type": "uint256"
                }
            ],
            "name": "transfer",
            "outputs": [
                {
                    "internalType": "bool",
                    "name": "",
                    "type": "bool"
                }
            ],
            "stateMutability": "nonpayable",
            "type": "function"
        },
        {
            "inputs": [
                {
                    "internalType": "address",
                    "name": "sender",
                    "type": "address"
                },
                {
                    "internalType": "address",
                    "name": "recipient",
                    "type": "address"
                },
                {
                    "internalType": "uint256",
                    "name": "amount",
                    "type": "uint256"
                }
            ],
            "name": "transferFrom",
            "outputs": [
                {
                    "internalType": "bool",
                    "name": "",
                    "type": "bool"
                }
            ],
            "stateMutability": "nonpayable",
            "type": "function"
        },
        {
            "inputs": [],
            "name": "unpause",
            "outputs": [],
            "stateMutability": "nonpayable",
            "type": "function"
        },
        {
            "inputs": [],
            "name": "updateProtocolFeePercentageCache",
            "outputs": [],
            "stateMutability": "nonpayable",
            "type": "function"
        },
        {
            "inputs": [
                {
                    "internalType": "contract IERC20",
                    "name": "token",
                    "type": "address"
                }
            ],
            "name": "updateTokenRateCache",
            "outputs": [],
            "stateMutability": "nonpayable",
            "type": "function"
        },
        {
            "inputs": [],
            "name": "version",
            "outputs": [
                {
                    "internalType": "string",
                    "name": "",
                    "type": "string"
                }
            ],
            "stateMutability": "view",
            "type": "function"
        }
    ],
    "bytecode": "0x6105006040523480156200001257600080fd5b506040516200813f3803806200813f833981016040819052620000359162001bc8565b8060200151604051806060016040528060008152602001600281526020016003815250620000698362000c4260201b60201c565b620000748462000c7b565b8461010001518560000151600087604001518860600151620000a18a608001513062000cc460201b60201c565b8a60800151516001016001600160401b0381118015620000c057600080fd5b50604051908082528060200260200182016040528015620000eb578160200160208202803683370190505b508b61012001518c61014001518d61016001518e61018001518983838a8a8e86336001600160a01b031660001b8480604051806040016040528060018152602001603160f81b815250878781600390805190602001906200014e92919062001861565b5080516200016490600490602084019062001861565b50506005805460ff19166012179055508151602092830120608052805191012060a052507f8b73c3c69bb8fe3d512ecc4cf759cc79239f7b179b0ffacaa9a75d522b39400f60c05260e0526001600160601b0319606091821b81166101005291901b166101205250620001e39050630163f50083111561019462000e5e565b620001f76276a70082111561019562000e5e565b4291909101610140819052016101605260601b6001600160601b0319166101805285516200022b906002111560c862000e5e565b620002456200023962000e73565b8751111560c962000e5e565b620002508462000e78565b60006200026b8b8b898962000f0c60201b620015301760201c565b9050806101a081815250508a6001600160a01b031663d2946c2b6040518163ffffffff1660e01b815260040160206040518083038186803b158015620002b057600080fd5b505afa158015620002c5573d6000803e3d6000fd5b505050506040513d601f19601f82011682018060405250810190620002eb919062001ba9565b60601b6001600160601b0319166101c052506200031d995050506001891015965061012c955062000e5e945050505050565b6200033061138882111561012d62000e5e565b60006200034b826103e862000f3b60201b620015521760201c565b9050620003588162000f6a565b50508051516200036d6002821160c862000e5e565b620003926001820383602001515184604001515162000fa960201b6200157d1760201c565b6101e081905281518051600090620003a657fe5b60200260200101516001600160a01b0316610220816001600160a01b031660601b815250508160000151600181518110620003dd57fe5b60200260200101516001600160a01b0316610240816001600160a01b031660601b8152505081600001516002815181106200041457fe5b60200260200101516001600160a01b0316610260816001600160a01b031660601b81525050600381116200044a57600062000463565b8151805160039081106200045a57fe5b60200260200101515b60601b6001600160601b0319166102805260048111620004855760006200049e565b8151805160049081106200049557fe5b60200260200101515b60601b6001600160601b0319166102a05260058111620004c0576000620004d9565b815180516005908110620004d057fe5b60200260200101515b60601b6001600160601b0319166102c05281518051620005129190600090620004fe57fe5b602002602001015162000fc960201b60201c565b6102e052815180516200052c91906001908110620004fe57fe5b61030052815180516200054691906002908110620004fe57fe5b61032052600381116200055b57600062000571565b620005718260000151600381518110620004fe57fe5b6103405260048111620005865760006200059c565b6200059c8260000151600481518110620004fe57fe5b6103605260058111620005b1576000620005c7565b620005c78260000151600581518110620004fe57fe5b61038052815151600019015b6000811180156200060457508251805130919083908110620005f157fe5b60200260200101516001600160a01b0316115b15620006145760001901620005d3565b6102008190528251516060906001600160401b03811180156200063657600080fd5b5060405190808252806020026020018201604052801562000661578160200160208202803683370190505b50905060008080805b875151811015620008845785811015620007a057876020015181815181106200068f57fe5b6020026020010151858281518110620006a457fe5b60200260200101906001600160a01b031690816001600160a01b0316815250506200070d60006001600160a01b0316868381518110620006e057fe5b60200260200101516001600160a01b0316141582600601866200109860201b6200159a179092919060201c565b9350876040015181815181106200072057fe5b60200260200101511562000795576200076c60006001600160a01b03168683815181106200074a57fe5b60200260200101516001600160a01b0316141561015562000e5e60201b60201c565b62000789600182866200109860201b6200159a179092919060201c565b9350600192506200079a565b600191505b6200087b565b8581146200087b5787602001516001820381518110620007bc57fe5b6020026020010151858281518110620007d157fe5b60200260200101906001600160a01b031690816001600160a01b0316815250506200080d60006001600160a01b0316868381518110620006e057fe5b9350876040015160018203815181106200082357fe5b60200260200101511562000876576200084d60006001600160a01b03168683815181106200074a57fe5b6200086a600182866200109860201b6200159a179092919060201c565b9350600192506200087b565b600191505b6001016200066a565b50811560f890811b610480528115901b6104a05283518490600090620008a657fe5b60200260200101516001600160a01b03166103a0816001600160a01b031660601b8152505083600181518110620008d957fe5b60200260200101516001600160a01b03166103c0816001600160a01b031660601b81525050836002815181106200090c57fe5b60200260200101516001600160a01b03166103e0816001600160a01b031660601b815250506003845111620009435760006200095a565b836003815181106200095157fe5b60200260200101515b60601b6001600160601b0319166104005283516004106200097d57600062000994565b836004815181106200098b57fe5b60200260200101515b60601b6001600160601b031916610420528351600510620009b7576000620009ce565b83600581518110620009c557fe5b60200260200101515b60601b6001600160601b0319166104405250506104605250508251516020808501515160408601515162000a119550929350919062000fa9811b6200157d17901c565b805160609062000a22903062000cc4565b8051909150600019015b60008111801562000a625750306001600160a01b031682828151811062000a4f57fe5b60200260200101516001600160a01b0316115b1562000a72576000190162000a2c565b6000805b84515181101562000b8b578281141562000a8f57600191505b60208501518051828401916000918490811062000aa857fe5b60200260200101516001600160a01b03161462000b815762000b02818760200151848151811062000ad557fe5b60200260200101518860400151858151811062000aee57fe5b6020026020010151620010a760201b60201c565b8560200151828151811062000b1357fe5b60200260200101516001600160a01b0316817fdd6d1c9badb346de6925b358a472c937b41698d2632696759e43fd6527feeec48860400151858151811062000b5757fe5b602002602001015160405162000b6e919062001db2565b60405180910390a362000b8181620011a2565b5060010162000a76565b5050505050606082901b6001600160601b0319166104c052604081015160009062000bc69060106008620011e1602090811b620015a917901c565b62000be7836020015160086000016008620011e160201b620015a91760201c565b62000c05846000015160006008620011e160201b620015a91760201c565b17176104e0819052905062000c1b8382620011f6565b5050506101a0810151805162000c3a91600d9160209091019062001861565b505062001ec7565b62000c4c620018e6565b6040518060600160405280836080015181526020018360a0015181526020018360c0015181525090505b919050565b62000c85620018e6565b604051806060016040528062000ca684608001513062000cc460201b60201c565b81526020018360a0015181526020018360e001518152509050919050565b606082516001016001600160401b038111801562000ce157600080fd5b5060405190808252806020026020018201604052801562000d0c578160200160208202803683370190505b50905082516000141562000d4f57818160008151811062000d2957fe5b60200260200101906001600160a01b031690816001600160a01b03168152505062000e58565b82515b60008111801562000d8b5750826001600160a01b031684600183038151811062000d7857fe5b60200260200101516001600160a01b0316115b1562000dd85783600182038151811062000da157fe5b602002602001015182828151811062000db657fe5b6001600160a01b03909216602092830291909101909101526000190162000d52565b60005b8181101562000e275784818151811062000df157fe5b602002602001015183828151811062000e0657fe5b6001600160a01b039092166020928302919091019091015260010162000ddb565b508282828151811062000e3657fe5b60200260200101906001600160a01b031690816001600160a01b031681525050505b92915050565b8162000e6f5762000e6f816200147c565b5050565b600690565b62000e9162000e8662001491565b82101560cb62000e5e565b62000eaa62000e9f6200149a565b82111560ca62000e5e565b62000ecc8160c0603f600854620014a660201b620015bc17909392919060201c565b6008556040517fa9ba3ffe0b6c366b81232caab38605a0699ad5398d6cce76f91ee809e322dafc9062000f0190839062001db2565b60405180910390a150565b600062000f2483620014cb60201b620015df1760201c565b62000f3285858585620014d7565b95945050505050565b600082820262000f6384158062000f5b57508385838162000f5857fe5b04145b600362000e5e565b9392505050565b62000f7881804280620015d1565b7fa0d01593e47e69d07e0ccd87bece09411e07dd1ed40ca8f2e7af2976542a02338160405162000f01919062001db2565b62000fc4828414801562000fbc57508183145b606762000e5e565b505050565b60006001600160a01b03821630141562000fed5750670de0b6b3a764000062000c76565b6000826001600160a01b031663313ce5676040518163ffffffff1660e01b815260040160206040518083038186803b1580156200102957600080fd5b505afa1580156200103e573d6000803e3d6000fd5b505050506040513d601f19601f8201168201806040525081019062001064919062001d8f565b60ff1690506000620010836012836200164460201b620015e91760201c565b600a0a670de0b6b3a764000002949350505050565b6001811b1992909216911b1790565b6000826001600160a01b031663679aefce6040518163ffffffff1660e01b815260040160206040518083038186803b158015620010e357600080fd5b505afa158015620010f8573d6000803e3d6000fd5b505050506040513d601f19601f820116820180604052508101906200111e919062001b90565b6000858152600a60209081526040909120549192506200114d90829084908690620015ff6200165c821b17901c565b6000868152600a602052604090819020919091555185907fb77a83204ca282e08dc3a65b0a1ca32ea4e6875c38ef0bf5bf75e52a67354fac906200119390859062001db2565b60405180910390a25050505050565b6000818152600a602090815260409091205490620011cb90829062001637620016b8821b17901c565b6000928352600a60205260409092209190915550565b6000620011f0848484620016e3565b50501b90565b6000826001600160a01b0316631a7c32636200122560006008866200173e60201b6200164f179092919060201c565b6040518263ffffffff1660e01b815260040162001243919062001db2565b60206040518083038186803b1580156200125c57600080fd5b505afa15801562001271573d6000803e3d6000fd5b505050506040513d601f19601f8201168201806040525081019062001297919062001b90565b905060006001600160a01b038416631a7c3263620012c4856008806200173e602090811b6200164f17901c565b6040518263ffffffff1660e01b8152600401620012e2919062001db2565b60206040518083038186803b158015620012fb57600080fd5b505afa15801562001310573d6000803e3d6000fd5b505050506040513d601f19601f8201168201806040525081019062001336919062001b90565b905060006001600160a01b038516631a7c32636200136486601060086200173e602090811b6200164f17901c565b6040518263ffffffff1660e01b815260040162001382919062001db2565b60206040518083038186803b1580156200139b57600080fd5b505afa158015620013b0573d6000803e3d6000fd5b505050506040513d601f19601f82011682018060405250810190620013d6919062001b90565b90506000620013f982604080600001016040620011e160201b620015a91760201c565b620014168460406000016040620011e160201b620015a91760201c565b620014308660006040620011e160201b620015a91760201c565b1717905080600b819055507fc3f0acc358200d8e08ac6ce20bc2f9f27893a344f813bf682b7859b3e521502e816040516200146c919062001db2565b60405180910390a1505050505050565b6200148e816210905360ea1b6200174d565b50565b64e8d4a5100090565b67016345785d8a000090565b6000620014b5848484620016e3565b506001901b60001901811b1992909216911b1790565b8062000e6f81620017ae565b600080856001600160a01b03166309b2760f866040518263ffffffff1660e01b815260040162001508919062001e49565b602060405180830381600087803b1580156200152357600080fd5b505af115801562001538573d6000803e3d6000fd5b505050506040513d601f19601f820116820180604052508101906200155e919062001b90565b604051633354e3e960e11b81529091506001600160a01b038716906366a9c7d290620015939084908890889060040162001dbb565b600060405180830381600087803b158015620015ae57600080fd5b505af1158015620015c3573d6000803e3d6000fd5b509298975050505050505050565b620015eb8160c06040620011e160201b620015a91760201c565b620016058360806040620011e160201b620015a91760201c565b6200161e85604080620011e160201b620015a91760201c565b620016388760006040620011e160201b620015a91760201c565b17171760095550505050565b60006200165683831115600162000e5e565b50900390565b600062001671606084901c1561014962000e5e565b620016b042830160e060206200169a8660c083838c8c60006060620015bc620014a6871b17861c565b620014a660201b620015bc17909392919060201c565b949350505050565b600062000e58620016c98362001835565b60608085620014a660201b620015bc17909392919060201c565b620016f46101008310606462000e5e565b6200172d600182101580156200172557506200172160ff84610100036200185560201b6200165e1760201c565b8211155b606462000e5e565b62000fc483821c156101b462000e5e565b6001901b6000190191901c1690565b62461bcd60e51b600090815260206004526007602452600a808404818106603090810160081b958390069590950190829004918206850160101b01602363ffffff0060e086901c160160181b0190930160c81b60445260e882901c90606490fd5b600281511015620017bf576200148e565b600081600081518110620017cf57fe5b602002602001015190506000600190505b825181101562000fc4576000838281518110620017f957fe5b602002602001015190506200182a816001600160a01b0316846001600160a01b031610606562000e5e60201b60201c565b9150600101620017e0565b600062000e5860006060846200173e60201b6200164f179092919060201c565b80820390821102900390565b828054600181600116156101000203166002900490600052602060002090601f016020900481019282601f10620018a457805160ff1916838001178555620018d4565b82800160010185558215620018d4579182015b82811115620018d4578251825591602001919060010190620018b7565b50620018e292915062001907565b5090565b60405180606001604052806060815260200160608152602001606081525090565b5b80821115620018e2576000815560010162001908565b805162000e588162001eb1565b600082601f8301126200193c578081fd5b8151620019536200194d8262001e85565b62001e5e565b8181529150602080830190848101818402860182018710156200197557600080fd5b6000805b85811015620019a5578251801515811462001992578283fd5b8552938301939183019160010162001979565b50505050505092915050565b600082601f830112620019c2578081fd5b8151620019d36200194d8262001e85565b818152915060208083019084810181840286018201871015620019f557600080fd5b60005b8481101562001a2157815162001a0e8162001eb1565b84529282019290820190600101620019f8565b505050505092915050565b600082601f83011262001a3d578081fd5b815162001a4e6200194d8262001e85565b81815291506020808301908481018184028601820187101562001a7057600080fd5b60005b8481101562001a2157815162001a898162001eb1565b8452928201929082019060010162001a73565b600082601f83011262001aad578081fd5b815162001abe6200194d8262001e85565b81815291506020808301908481018184028601820187101562001ae057600080fd5b60005b8481101562001a215781518452928201929082019060010162001ae3565b600082601f83011262001b12578081fd5b81516001600160401b0381111562001b28578182fd5b602062001b3e601f8301601f1916820162001e5e565b9250818352848183860101111562001b5557600080fd5b60005b8281101562001b7557848101820151848201830152810162001b58565b8281111562001b875760008284860101525b50505092915050565b60006020828403121562001ba2578081fd5b5051919050565b60006020828403121562001bbb578081fd5b815162000f638162001eb1565b60006020828403121562001bda578081fd5b81516001600160401b038082111562001bf1578283fd5b81840191506101c080838703121562001c08578384fd5b62001c138162001e5e565b905062001c2186846200191e565b815262001c3286602085016200191e565b602082015260408301518281111562001c49578485fd5b62001c578782860162001b01565b60408301525060608301518281111562001c6f578485fd5b62001c7d8782860162001b01565b60608301525060808301518281111562001c95578485fd5b62001ca387828601620019b1565b60808301525060a08301518281111562001cbb578485fd5b62001cc98782860162001a2c565b60a08301525060c08301518281111562001ce1578485fd5b62001cef8782860162001a9c565b60c08301525060e08301518281111562001d07578485fd5b62001d15878286016200192b565b60e083015250610100838101519082015261012080840151908201526101408084015190820152610160808401519082015261018062001d58878286016200191e565b908201526101a0838101518381111562001d70578586fd5b62001d7e8882870162001b01565b918301919091525095945050505050565b60006020828403121562001da1578081fd5b815160ff8116811462000f63578182fd5b90815260200190565b60006060820185835260206060818501528186518084526080860191508288019350845b8181101562001e075762001df4855162001ea5565b8352938301939183019160010162001ddf565b505084810360408601528551808252908201925081860190845b81811015620015c35762001e36835162001ea5565b8552938301939183019160010162001e21565b602081016003831062001e5857fe5b91905290565b6040518181016001600160401b038111828210171562001e7d57600080fd5b604052919050565b60006001600160401b0382111562001e9b578081fd5b5060209081020190565b6001600160a01b031690565b6001600160a01b03811681146200148e57600080fd5b60805160a05160c05160e0516101005160601c6101205160601c61014051610160516101805160601c6101a0516101c05160601c6101e051610200516102205160601c6102405160601c6102605160601c6102805160601c6102a05160601c6102c05160601c6102e05161030051610320516103405161036051610380516103a05160601c6103c05160601c6103e05160601c6104005160601c6104205160601c6104405160601c610460516104805160f81c6104a05160f81c6104c05160601c6104e0516160bf62002080600039806108885280610c4252508061086752508061484b525080614827525080612bbd5280614492525080611d45525080611d15525080611ce5525080611cb5525080611c85525080611c555250806131535250806131235250806130f35250806130c3525080613093525080613063525080611fa2525080611f60525080611f1e525080611edc525080611e9a525080611e58525080610ffa52508061168a52508061125d525080610b66525080611862525080611c29525080611c055250806110fa5250806110d6525080611032525080612dc8525080612e0a525080612de952506160bf6000f3fe608060405234801561001057600080fd5b50600436106103625760003560e01c806370464016116101c857806395d89b4111610104578063d2946c2b116100a2578063dd62ed3e1161007c578063dd62ed3e146106b2578063eb0f24d6146106c5578063ed24911d146106cd578063f4b7964d146106d557610362565b8063d2946c2b14610684578063d505accf1461068c578063d5c096c41461069f57610362565b8063aaabadc5116100de578063aaabadc514610659578063ab7759f114610661578063b35056b814610674578063b7b814fc1461067c57610362565b806395d89b411461062b578063a457c2d714610633578063a9059cbb1461064657610362565b80638456cb591161017157806387ec68171161014b57806387ec6817146105e8578063893d20e8146105fb5780638d928af81461061057806390193b7c1461061857610362565b80638456cb59146105c5578063851c1bb3146105cd578063876f303b146105e057610362565b80637ecebe00116101a25780637ecebe00146105875780637f1260d11461059a57806382687a56146105bd57610362565b8063704640161461054057806370a082311461055357806374f3b0091461056657610362565b80633644e515116102a257806354a844ba1161024057806355c676281161021a57806355c67628146104f85780636028bfd414610500578063679aefce146105215780636daccffa1461052957610362565b806354a844ba146104d557806354dea00a146104dd57806354fd4d50146104f057610362565b8063395093511161027c57806339509351146104915780633c975d51146104a45780633f4ba83a146104ba5780634df77ce0146104c257610362565b80633644e5151461046e57806338e9922e1461047657806338fff2d01461048957610362565b80631c0de0511161030f57806323b872dd116102e957806323b872dd146104205780632df2c7c0146104335780632f1a0bc914610446578063313ce5671461045957610362565b80631c0de051146103df5780631dd746ea146103f6578063238a2d591461040b57610362565b8063095ea7b311610340578063095ea7b3146103ad5780630da0669c146103cd57806318160ddd146103d757610362565b806301ec954a1461036757806304842d4c1461039057806306fdde0314610398575b600080fd5b61037a610375366004615ae4565b6106e8565b6040516103879190615e0d565b60405180910390f35b61037a61078e565b6103a061079d565b6040516103879190615f5b565b6103c06103bb366004615735565b610833565b6040516103879190615dea565b6103d561084a565b005b61037a6108ae565b6103e76108b4565b60405161038793929190615df5565b6103fe6108dd565b6040516103879190615db2565b6104136108e7565b6040516103879190615d65565b6103c061042e366004615685565b610982565b6103d5610441366004615631565b6109f6565b6103d5610454366004615c1b565b610a52565b610461610b35565b6040516103879190615f4d565b61037a610b3e565b6103d5610484366004615c03565b610b48565b61037a610b64565b6103c061049f366004615735565b610b88565b6104ac610bc3565b604051610387929190615fbd565b6103d5610bee565b61037a6104d0366004615c03565b610c00565b6103d5610c72565b61037a6104eb366004615631565b610cc6565b6103a0610cd9565b61037a610d3a565b61051361050e366004615864565b610d4d565b604051610387929190615f8e565b61037a610d84565b610531610df0565b60405161038793929190615fa7565b61037a61054e366004615c03565b610e0b565b61037a610561366004615631565b610e6d565b610579610574366004615864565b610e88565b604051610387929190615dc5565b61037a610595366004615631565b610f8b565b6105ad6105a8366004615631565b610f96565b6040516103879493929190615fcb565b61037a610ff8565b6103d561101c565b61037a6105db366004615907565b61102e565b61037a611080565b6105136105f6366004615864565b6110ae565b6106036110d4565b6040516103879190615d51565b6106036110f8565b61037a610626366004615631565b61111c565b6103a0611137565b6103c0610641366004615735565b611198565b6103c0610654366004615735565b6111d6565b6106036111e3565b6103c061066f366004615631565b6111ed565b6103c0611200565b6103d5611211565b61060361125b565b6103d561069a3660046156c5565b61127f565b6105796106ad366004615864565b61130a565b61037a6106c036600461564d565b61142d565b6103d561146a565b61037a61149a565b6103d56106e3366004615735565b6114a4565b600084608001516107156106fa6110f8565b6001600160a01b0316336001600160a01b03161460cd61166a565b61072a610720610b64565b82146101f461166a565b610732611678565b610744848461073f611688565b6116ac565b606061074e6116c4565b905060008751600181111561075f57fe5b1461077657610771878787878561175d565b610783565b61078387878787856117b6565b979650505050505050565b60006107986117f1565b905090565b60038054604080516020601f60026000196101006001881615020190951694909404938401819004810282018101909252828152606093909290918301828280156108295780601f106107fe57610100808354040283529160200191610829565b820191906000526020600020905b81548152906001019060200180831161080c57829003601f168201915b5050505050905090565b60006108403384846117f8565b5060015b92915050565b61085a610855611860565b611884565b61086261196e565b6108ac7f00000000000000000000000000000000000000000000000000000000000000007f00000000000000000000000000000000000000000000000000000000000000006119d2565b565b60025490565b60008060006108c1611be6565b1592506108cc611c03565b91506108d6611c27565b9050909192565b60606107986116c4565b606060006108f3611688565b905060608167ffffffffffffffff8111801561090e57600080fd5b50604051908082528060200260200182016040528015610938578160200160208202803683370190505b50905060005b8281101561097b5761094f81611c4b565b82828151811061095b57fe5b6001600160a01b039092166020928302919091019091015260010161093e565b5091505090565b60008061098f853361142d565b90506109b3336001600160a01b03871614806109ab5750838210155b61019e61166a565b6109be858585611d74565b336001600160a01b038616148015906109d957506000198114155b156109eb576109eb85338584036117f8565b506001949350505050565b6000610a0182611e54565b90506000610a0e82611c4b565b9050610a276001600160a01b038216151561015561166a565b6000828152600a6020526040812054610a3f90611fe2565b9050610a4c838383611ff1565b50505050565b610a5a6120d4565b610a6a600183101561012c61166a565b610a7b61138883111561012d61166a565b6000610a8782426115e9565b9050610a9b6201518082101561013d61166a565b600080610aa661211a565b91509150610ab7811561013e61166a565b6000610ac5866103e8611552565b90506000838211610af457610aef610ae06201518086611552565b610aea8488611552565b61218e565b610b0e565b610b0e610b046201518084611552565b610aea8688611552565b9050610b20600282111561013f61166a565b610b2c848342896121af565b50505050505050565b60055460ff1690565b600061079861149a565b610b506120d4565b610b586121fe565b610b6181612211565b50565b7f000000000000000000000000000000000000000000000000000000000000000090565b3360008181526001602090815260408083206001600160a01b03871684529091528120549091610840918590610bbe908661228a565b6117f8565b600c546000908190610bd88160e9601761164f565b9250610be781600060e961164f565b9150509091565b610bf66120d4565b6108ac600061229c565b60008082610c1057506000610c3d565b6002831415610c2157506008610c3d565b6003831415610c3257506010610c3d565b610c3d6101bb61232d565b610c697f000000000000000000000000000000000000000000000000000000000000000082600861164f565b9150505b919050565b610c7a6120d4565b610c82612357565b610c8c600161236b565b7feff3d4d215b42bf0960be9c6d5e05c22cba4df6627a3a523e2acee733b5854c86001604051610cbc9190615dea565b60405180910390a1565b6000610844610cd483611e54565b6123c2565b600d8054604080516020601f60026000196101006001881615020190951694909404938401819004810282018101909252828152606093909290918301828280156108295780601f106107fe57610100808354040283529160200191610829565b6008546000906107989060c0603f61164f565b60006060610d638651610d5e611688565b612415565b610d78898989898989896124226124446124ad565b97509795505050505050565b60006060600080600080610d96612644565b9398509196509450925090506000610dae858561228a565b90506000610dba61211a565b5090506000848214610dd557610dd08289612734565b610dd7565b835b9050610de38184612896565b9850505050505050505090565b6000806000610dfd61211a565b90949093506103e892509050565b6000610e15611200565b15610e2257506000610c6d565b600082610e3157506000610e5e565b6002831415610e4257506040610e5e565b6003831415610e5357506080610e5e565b610e5e6101bb61232d565b600b54610c699082604061164f565b6001600160a01b031660009081526020819052604090205490565b60608088610e976106fa6110f8565b610ea2610720610b64565b60606000610eaf866128e9565b15610ed757610ebc612918565b610ece89610ec86108ae565b8861292b565b92509050610f29565b610edf611678565b6060610ee96116c4565b9050610ef58a82612a11565b610f198d8d8d8d8d610f05611200565b610f0f578d610f12565b60005b878e612422565b93509150610f278382612444565b505b610f338b82612a7a565b81895167ffffffffffffffff81118015610f4c57600080fd5b50604051908082528060200260200182016040528015610f76578160200160208202803683370190505b509450945050505b5097509795505050505050565b60006108448261111c565b6000806000806000600a6000610fab88611e54565b81526020810191909152604001600020549050610fcc81151561015561166a565b610fd581612a84565b9450610fe081612a92565b9350610feb81612aa0565b9597949650949392505050565b7f000000000000000000000000000000000000000000000000000000000000000090565b6110246120d4565b6108ac600161229c565b60007f000000000000000000000000000000000000000000000000000000000000000082604051602001611063929190615cbf565b604051602081830303815290604052805190602001209050919050565b600080600061108d612644565b505092509250506110a7818361228a90919063ffffffff16565b9250505090565b600060606110bf8651610d5e611688565b610d7889898989898989612ac2612ad36124ad565b7f000000000000000000000000000000000000000000000000000000000000000090565b7f000000000000000000000000000000000000000000000000000000000000000090565b6001600160a01b031660009081526006602052604090205490565b60048054604080516020601f60026000196101006001881615020190951694909404938401819004810282018101909252828152606093909290918301828280156108295780601f106107fe57610100808354040283529160200191610829565b6000806111a5338561142d565b90508083106111bf576111ba338560006117f8565b6111cc565b6111cc33858584036117f8565b5060019392505050565b6000610840338484611d74565b6000610798612b3c565b60006108446111fb83611e54565b612bb6565b6008546000906107989060ff612bde565b6112196120d4565b611221612918565b61122b600061236b565b7feff3d4d215b42bf0960be9c6d5e05c22cba4df6627a3a523e2acee733b5854c86000604051610cbc9190615dea565b7f000000000000000000000000000000000000000000000000000000000000000090565b60007f6e71edae12b1b97f4d1f60370fef10105fa2faae0126114a169c64845d6126c98888886112ae8c61111c565b896040516020016112c496959493929190615e35565b6040516020818303038152906040528051906020012090506112f588826112ec878787612be5565b886101f8612c24565b6113008888886117f8565b5050505050505050565b606080886113196106fa6110f8565b611324610720610b64565b61132c611678565b60606113366116c4565b90506113406108ae565b6113ed57600060606113558d8d8d868b612c7b565b9150915061136e6113646117f1565b83101560cc61166a565b611380600061137b6117f1565b612d54565b6113938b61138c6117f1565b8403612d54565b61139d8184612ad3565b808a5167ffffffffffffffff811180156113b657600080fd5b506040519080825280602002602001820160405280156113e0578160200160208202803683370190505b5095509550505050610f7e565b6113f78882612a11565b6000606061141f8d8d8d8d8d61140b611200565b611415578d611418565b60005b898e612ac2565b915091506113938b83612d54565b60006114376110f8565b6001600160a01b0316826001600160a01b031614156114595750600019610844565b6114638383612d5e565b9050610844565b6114726120d4565b60008061147d61211a565b9150915061148d8161014061166a565b61149682612d89565b5050565b6000610798612dc4565b6114ac6120d4565b60006114b783611e54565b905060006114c482611c4b565b90506114dd6001600160a01b038216151561015561166a565b6114e8828285611ff1565b806001600160a01b0316827fdd6d1c9badb346de6925b358a472c937b41698d2632696759e43fd6527feeec4856040516115229190615e0d565b60405180910390a350505050565b600061153b836115df565b61154785858585612e61565b90505b949350505050565b600082820261157684158061156f57508385838161156c57fe5b04145b600361166a565b9392505050565b611595828414801561158e57508183145b606761166a565b505050565b6001811b1992909216911b1790565b60006115b6848484612f6a565b50501b90565b60006115c9848484612f6a565b506001901b60001901811b1992909216911b1790565b8061149681612fb0565b60006115f983831115600161166a565b50900390565b6000611612606084901c1561014961166a565b61154a42830160e0602061162f8660c083838c8c600060606115bc565b9291906115bc565b600061084461164583612a84565b83906060806115bc565b6001901b6000190191901c1690565b80820390821102900390565b81611496576114968161232d565b611680613029565b6108ac613031565b7f000000000000000000000000000000000000000000000000000000000000000090565b61159581841080156116bd57508183105b606461166a565b606060006116d0611688565b905060608167ffffffffffffffff811180156116eb57600080fd5b50604051908082528060200260200182016040528015611715578160200160208202803683370190505b50905060005b8281101561097b5761173e61172f826123c2565b61173883613059565b90613177565b82828151811061174a57fe5b602090810291909101015260010161171b565b60208501516000906001600160a01b0316301480611787575060408601516001600160a01b031630145b61179d5761179886868686866131a0565b6117aa565b6117aa868686868661320a565b90505b95945050505050565b60208501516000906001600160a01b03163014806117e0575060408601516001600160a01b031630145b61179d57611798868686868661330e565b620f424090565b6001600160a01b0380841660008181526001602090815260408083209487168084529490915290819020849055517f8c5be1e5ebec7d5bd14f71427d1e84f3dd0314c0f7b2291e5b200ac8c7c3b92590611853908590615e0d565b60405180910390a3505050565b7f000000000000000000000000000000000000000000000000000000000000000090565b6060816001600160a01b0316620186a0630e8e3e8460e01b60006040516024016118ae9190615f4d565b60408051601f198184030181529181526020820180517bffffffffffffffffffffffffffffffffffffffffffffffffffffffff167fffffffff000000000000000000000000000000000000000000000000000000009094169390931790925290516119199190615cff565b6000604051808303818686fa925050503d8060008114611955576040519150601f19603f3d011682016040523d82523d6000602084013e61195a565b606091505b50915050611496815160001461019061166a565b6119766121fe565b60606000806000611985612644565b94509450945050935061199783613365565b60006119a161211a565b50905060008382146119bc576119b78287612734565b6119be565b825b90506119ca828261337c565b505050505050565b60006001600160a01b038316631a7c32636119ef8484600861164f565b6040518263ffffffff1660e01b8152600401611a0b9190615e0d565b60206040518083038186803b158015611a2357600080fd5b505afa158015611a37573d6000803e3d6000fd5b505050506040513d601f19601f82011682018060405250810190611a5b919061584c565b905060006001600160a01b038416631a7c3263611a7a8560088061164f565b6040518263ffffffff1660e01b8152600401611a969190615e0d565b60206040518083038186803b158015611aae57600080fd5b505afa158015611ac2573d6000803e3d6000fd5b505050506040513d601f19601f82011682018060405250810190611ae6919061584c565b905060006001600160a01b038516631a7c3263611b06866010600861164f565b6040518263ffffffff1660e01b8152600401611b229190615e0d565b60206040518083038186803b158015611b3a57600080fd5b505afa158015611b4e573d6000803e3d6000fd5b505050506040513d601f19601f82011682018060405250810190611b72919061584c565b90506000611b8382608060406115a9565b611b8f846040806115a9565b611b9c86600060406115a9565b1717905080600b819055507fc3f0acc358200d8e08ac6ce20bc2f9f27893a344f813bf682b7859b3e521502e81604051611bd69190615e0d565b60405180910390a1505050505050565b6000611bf0611c27565b42118061079857505060075460ff161590565b7f000000000000000000000000000000000000000000000000000000000000000090565b7f000000000000000000000000000000000000000000000000000000000000000090565b600081611c7957507f0000000000000000000000000000000000000000000000000000000000000000610c6d565b8160011415611ca957507f0000000000000000000000000000000000000000000000000000000000000000610c6d565b8160021415611cd957507f0000000000000000000000000000000000000000000000000000000000000000610c6d565b8160031415611d0957507f0000000000000000000000000000000000000000000000000000000000000000610c6d565b8160041415611d3957507f0000000000000000000000000000000000000000000000000000000000000000610c6d565b8160051415611d6957507f0000000000000000000000000000000000000000000000000000000000000000610c6d565b610c6d61013561232d565b611d8b6001600160a01b038416151561019861166a565b611da26001600160a01b038316151561019961166a565b611dad838383611595565b6001600160a01b038316600090815260208190526040902054611dd390826101a06133a2565b6001600160a01b038085166000908152602081905260408082209390935590841681522054611e02908261228a565b6001600160a01b0380841660008181526020819052604090819020939093559151908516907fddf252ad1be2c89b69c2b068fc378daa952ba7f163c4a11628f55a4df523b3ef90611853908590615e0d565b60007f00000000000000000000000000000000000000000000000000000000000000006001600160a01b0316826001600160a01b03161415611e9857506000610c6d565b7f00000000000000000000000000000000000000000000000000000000000000006001600160a01b0316826001600160a01b03161415611eda57506001610c6d565b7f00000000000000000000000000000000000000000000000000000000000000006001600160a01b0316826001600160a01b03161415611f1c57506002610c6d565b7f00000000000000000000000000000000000000000000000000000000000000006001600160a01b0316826001600160a01b03161415611f5e57506003610c6d565b7f00000000000000000000000000000000000000000000000000000000000000006001600160a01b0316826001600160a01b03161415611fa057506004610c6d565b7f00000000000000000000000000000000000000000000000000000000000000006001600160a01b0316826001600160a01b03161415611d6957506005610c6d565b60006108448260c0602061164f565b6000826001600160a01b031663679aefce6040518163ffffffff1660e01b815260040160206040518083038186803b15801561202c57600080fd5b505afa158015612040573d6000803e3d6000fd5b505050506040513d601f19601f82011682018060405250810190612064919061584c565b6000858152600a60205260409020549091506120818183856115ff565b6000868152600a602052604090819020919091555185907fb77a83204ca282e08dc3a65b0a1ca32ea4e6875c38ef0bf5bf75e52a67354fac906120c5908590615e0d565b60405180910390a25050505050565b60006121036000357fffffffff000000000000000000000000000000000000000000000000000000001661102e565b9050610b6161211282336133b8565b61019161166a565b60008060008060008061212b6134a1565b93509350935093508042101561217e57600194508383111561216257818103824203858503028161215857fe5b0484019550612179565b818103824203848603028161217357fe5b04840395505b612186565b600094508295505b505050509091565b600061219d821515600461166a565b50811515600019909201046001010290565b6121bb84848484613500565b7f1835882ee7a34ac194f717a35e09bb1d24c82a3b9d854ab6c9749525b714cdf2848484846040516121f09493929190615fcb565b60405180910390a150505050565b6108ac612209611be6565b61019261166a565b61222661221c61353f565b82101560cb61166a565b61223b612231613548565b82111560ca61166a565b60085461224c908260c0603f6115bc565b6008556040517fa9ba3ffe0b6c366b81232caab38605a0699ad5398d6cce76f91ee809e322dafc9061227f908390615e0d565b60405180910390a150565b6000828201611576848210158361166a565b80156122bc576122b76122ad611c03565b421061019361166a565b6122d1565b6122d16122c7611c27565b42106101a961166a565b600780547fffffffffffffffffffffffffffffffffffffffffffffffffffffffffffffff00168215151790556040517f9e3a5e37224532dea67b89face185703738a228a6e8a23dee546960180d3be649061227f908390615dea565b610b61817f42414c0000000000000000000000000000000000000000000000000000000000613554565b6108ac612362611200565b156101b561166a565b60085461237a908260ff61159a565b6008556040517feff3d4d215b42bf0960be9c6d5e05c22cba4df6627a3a523e2acee733b5854c8906123ad908390615dea565b60405180910390a180610b6157610b616135cf565b60006123cc610ff8565b8214156123e25750670de0b6b3a7640000610c6d565b6000828152600a602052604090205480156124055761240081612a84565b610c69565b50670de0b6b3a764000092915050565b611496818314606761166a565b6000606061243360008886866136a1565b915091509850989650505050505050565b81518151612453908290612415565b60005b81811015610a4c5761248e84828151811061246d57fe5b602002602001015184838151811061248157fe5b6020026020010151612896565b84828151811061249a57fe5b6020908102919091010152600101612456565b33301461259c576000306001600160a01b03166000366040516124d1929190615cef565b6000604051808303816000865af19150503d806000811461250e576040519150601f19603f3d011682016040523d82523d6000602084013e612513565b606091505b50509050806000811461252257fe5b60046000803e6000517fffffffff00000000000000000000000000000000000000000000000000000000167f43adbafb00000000000000000000000000000000000000000000000000000000811461257e573d6000803e3d6000fd5b506020600460003e604060205260243d03602460403e601c3d016000f35b6125a4611678565b60606125ae6116c4565b90506125ba8782612a11565b600060606125d28c8c8c8c8c8c898d8d63ffffffff16565b915091506125e481848663ffffffff16565b8051601f1982018390526343adbafb7fffffffffffffffffffffffffffffffffffffffffffffffffffffffffffffffc08301526020027fffffffffffffffffffffffffffffffffffffffffffffffffffffffffffffffdc82016044820181fd5b606060008060008060606126566110f8565b6001600160a01b031663f94d466861266c610b64565b6040518263ffffffff1660e01b81526004016126889190615e0d565b60006040518083038186803b1580156126a057600080fd5b505afa1580156126b4573d6000803e3d6000fd5b505050506040513d6000823e601f3d908101601f191682016040526126dc9190810190615760565b509150506126f1816126ec6116c4565b612a11565b6126fa8161374f565b965094506000612708610bc3565b9094509050600061271a888684613788565b945090506127288782613815565b95505050509091929394565b80516000908190815b818110156127755761276b85828151811061275457fe5b60200260200101518461228a90919063ffffffff16565b925060010161273d565b508161278657600092505050610844565b600082868302825b60ff81101561287f578260005b868110156127dc576127d26127b08387611552565b6127cd8c84815181106127bf57fe5b60200260200101518a611552565b61382d565b915060010161279b565b5083945061283561281461280e6127f3848a611552565b612808612800888d611552565b6103e861382d565b9061228a565b86611552565b6127cd6128248960010185611552565b6128086128006103e889038a611552565b93508484111561285d576001858503116128585783975050505050505050610844565b612876565b6001848603116128765783975050505050505050610844565b5060010161278e565b5061288b61014161232d565b505050505092915050565b60006128a5821515600461166a565b670de0b6b3a764000083026128d78415806128d05750670de0b6b3a76400008583816128cd57fe5b04145b600561166a565b8281816128e057fe5b04949350505050565b6000808251118015610844575060ff80168280602001905181019061290e9190615c3c565b60ff161492915050565b6108ac612923611200565b6101b661166a565b600060606000606061293c8761374f565b91509150600061294b8661384d565b90506060825167ffffffffffffffff8111801561296757600080fd5b50604051908082528060200260200182016040528015612991578160200160208202803683370190505b50905060006129a08386612896565b905060005b84518110156129f3576129d4828683815181106129be57fe5b602002602001015161317790919063ffffffff16565b8382815181106129e057fe5b60209081029190910101526001016129a5565b5082612a00836000613863565b965096505050505050935093915050565b81518151612a20908290612415565b60005b81811015610a4c57612a5b848281518110612a3a57fe5b6020026020010151848381518110612a4e57fe5b6020026020010151613177565b848281518110612a6757fe5b6020908102919091010152600101612a23565b6114968282613920565b60006108448282606061164f565b60006108448260608061164f565b600080612aac83611fe2565b9150612abb8360e0602061164f565b9050915091565b6000606061243360018886866136a1565b81518151612ae2908290612415565b60005b81811015610a4c57612b1d848281518110612afc57fe5b6020026020010151848381518110612b1057fe5b60200260200101516139ec565b848281518110612b2957fe5b6020908102919091010152600101612ae5565b6000612b466110f8565b6001600160a01b031663aaabadc56040518163ffffffff1660e01b815260040160206040518083038186803b158015612b7e57600080fd5b505afa158015612b92573d6000803e3d6000fd5b505050506040513d601f19601f820116820180604052508101906107989190615947565b60006108447f0000000000000000000000000000000000000000000000000000000000000000835b1c60011690565b60408051604180825260808201909252606091829190602082018180368337019050509050836020820152826040820152846060820153949350505050565b6000612c2f85613a39565b9050612c45612c3f878387613a55565b8361166a565b612c54428410156101b861166a565b5050506001600160a01b039092166000908152600660205260409020805460010190555050565b600060606000612c8a84613b04565b9050612ca56000826003811115612c9d57fe5b1460ce61166a565b6060612cb085613b1a565b9050612cbe81518751612415565b612cc88187612a11565b6000612cd261211a565b5090506060612ce083613b30565b90506000612cee8383612734565b9050806000612d0b6d8000000000000000000000000000836115e9565b9050612d178d82612d54565b8086612d21610ff8565b81518110612d2b57fe5b602002602001018181525050612d41858461337c565b509c939b50929950505050505050505050565b6114968282613bd2565b6001600160a01b03918216600090815260016020908152604080832093909416825291909152205490565b612d9581824242613500565b7fa0d01593e47e69d07e0ccd87bece09411e07dd1ed40ca8f2e7af2976542a02338160405161227f9190615e0d565b60007f00000000000000000000000000000000000000000000000000000000000000007f00000000000000000000000000000000000000000000000000000000000000007f0000000000000000000000000000000000000000000000000000000000000000612e31613c5f565b30604051602001612e46959493929190615eef565b60405160208183030381529060405280519060200120905090565b600080856001600160a01b03166309b2760f866040518263ffffffff1660e01b8152600401612e909190615f39565b602060405180830381600087803b158015612eaa57600080fd5b505af1158015612ebe573d6000803e3d6000fd5b505050506040513d601f19601f82011682018060405250810190612ee2919061584c565b6040517f66a9c7d20000000000000000000000000000000000000000000000000000000081529091506001600160a01b038716906366a9c7d290612f2e90849088908890600401615e69565b600060405180830381600087803b158015612f4857600080fd5b505af1158015612f5c573d6000803e3d6000fd5b509298975050505050505050565b612f796101008310606461166a565b612fa1600182101580156116bd5750612f9760ff846101000361165e565b821115606461166a565b61159583821c156101b461166a565b600281511015612fbf57610b61565b600081600081518110612fce57fe5b602002602001015190506000600190505b8251811015611595576000838281518110612ff657fe5b6020026020010151905061301f816001600160a01b0316846001600160a01b031610606561166a565b9150600101612fdf565b6108ac6121fe565b600061303b611688565b905060005b818110156114965761305181613c63565b600101613040565b60008161308757507f0000000000000000000000000000000000000000000000000000000000000000610c6d565b81600114156130b757507f0000000000000000000000000000000000000000000000000000000000000000610c6d565b81600214156130e757507f0000000000000000000000000000000000000000000000000000000000000000610c6d565b816003141561311757507f0000000000000000000000000000000000000000000000000000000000000000610c6d565b816004141561314757507f0000000000000000000000000000000000000000000000000000000000000000610c6d565b8160051415611d6957507f0000000000000000000000000000000000000000000000000000000000000000610c6d565b600082820261319184158061156f57508385838161156c57fe5b670de0b6b3a7640000816128e0565b60006131ac8583612a11565b6131cd86606001518385815181106131c057fe5b6020026020010151613cb7565b606087015260006131e087878787613cc3565b90506131ff818487815181106131f257fe5b6020026020010151613cd7565b905061078381613ce3565b600080808751600181111561321b57fe5b1490506132288684612a11565b6132488760600151848361323c578661323e565b875b815181106131c057fe5b876060018181525050600060606000806132618a613cff565b9350935093509350600080613274610ff8565b8a1461329a57613295878e606001518761328d8e613d68565b888b89613da1565b6132b5565b6132b5878e60600151876132ad8f613d68565b888b89613dda565b915091506132c68486858985613dfe565b866132e0576132db828a8d815181106131f257fe5b6132fd565b6132fd828a8c815181106132f057fe5b6020026020010151613e7e565b9d9c50505050505050505050505050565b600061331d8660600151613e8a565b606087015261332c8583612a11565b61334086606001518386815181106131c057fe5b6060870152600061335387878787613eab565b9050610783818486815181106132f057fe5b8015610b6157610b6161337661125b565b82612d54565b61338981600060e96115a9565b6133968360e960176115a9565b17600c55611496613ebf565b60006133b1848411158361166a565b5050900390565b600073ba1ba1ba1ba1ba1ba1ba1ba1ba1ba1ba1ba1ba1b6133d76110d4565b6001600160a01b0316141580156133f257506133f283613ef5565b1561341a576133ff6110d4565b6001600160a01b0316336001600160a01b0316149050610844565b613422612b3c565b6001600160a01b0316639be2a8848484306040518463ffffffff1660e01b815260040161345193929190615e16565b60206040518083038186803b15801561346957600080fd5b505afa15801561347d573d6000803e3d6000fd5b505050506040513d601f19601f82011682018060405250810190611463919061582c565b6000806000806134c06000604060095461164f9092919063ffffffff16565b6009549094506134d29060408061164f565b6009549093506134e5906080604061164f565b6009549092506134f89060c0604061164f565b905090919293565b61350d8160c060406115a9565b61351a83608060406115a9565b613526856040806115a9565b61353387600060406115a9565b17171760095550505050565b64e8d4a5100090565b67016345785d8a000090565b7f08c379a000000000000000000000000000000000000000000000000000000000600090815260206004526007602452600a808404818106603090810160081b958390069590950190829004918206850160101b01602363ffffff0060e086901c160160181b0190930160c81b60445260e882901c90606490fd5b60606135d96110f8565b6001600160a01b031663f94d46686135ef610b64565b6040518263ffffffff1660e01b815260040161360b9190615e0d565b60006040518083038186803b15801561362357600080fd5b505afa158015613637573d6000803e3d6000fd5b505050506040513d6000823e601f3d908101601f1916820160405261365f9190810190615760565b5091505061366f816126ec6116c4565b606061367a82613b30565b9050600061368661211a565b50905060006136958284612734565b9050610a4c828261337c565b60006060600060606000806136b589613cff565b93509350935093506154cd8a6136cd57613f006136d1565b613f955b9050600060606136e9868689878f8f8963ffffffff16565b915091506154cd8d6136fd576115e9613701565b61228a5b905061370e878383614013565b600061371e89858463ffffffff16565b905061372d8789888c85613dfe565b83613739846000613863565b9a509a5050505050505050505094509492505050565b600060606137768361375f610ff8565b8151811061376957fe5b6020026020010151614087565b61377f84613b30565b91509150915091565b600080600080600061379a888861409b565b92509250925060008684116137b05760006137b4565b8684035b905060008484116137c65760006137ca565b8484035b905060006137e56137db6000610e0b565b6117388587612896565b905060006138006137f66002610e0b565b6117388588612896565b919091019b939a509298505050505050505050565b60006115766138248484611552565b6127cd8461411d565b600061383c821515600461166a565b81838161384557fe5b049392505050565b6000818060200190518101906115769190615c58565b6060825160010167ffffffffffffffff8111801561388057600080fd5b506040519080825280602002602001820160405280156138aa578160200160208202803683370190505b50905060005b8151811015613919576138c1610ff8565b81146138f857836138d0610ff8565b82106138df57600182036138e1565b815b815181106138eb57fe5b60200260200101516138fa565b825b82828151811061390657fe5b60209081029190910101526001016138b0565b5092915050565b6139376001600160a01b038316151561019b61166a565b61394382600083611595565b6001600160a01b03821660009081526020819052604090205461396990826101b26133a2565b6001600160a01b03831660009081526020819052604090205561399c613997826139916108ae565b9061412f565b61413d565b60006001600160a01b0316826001600160a01b03167fddf252ad1be2c89b69c2b068fc378daa952ba7f163c4a11628f55a4df523b3ef836040516139e09190615e0d565b60405180910390a35050565b60006139fb821515600461166a565b670de0b6b3a76400008302613a238415806128d05750670de0b6b3a76400008583816128cd57fe5b6001836001830304018115150291505092915050565b6000613a43612dc4565b82604051602001611063929190615d1b565b6000613a6782516041146101b961166a565b60208281015160408085015160608601518251600080825295019283905292939092811a91600190613aa0908990859088908890615f1b565b6020604051602081039080840390855afa158015613ac2573d6000803e3d6000fd5b5050604051601f1901519150506001600160a01b03811615801590613af85750876001600160a01b0316816001600160a01b0316145b98975050505050505050565b6000818060200190518101906108449190615a24565b6060818060200190518101906115769190615a3f565b606080600183510367ffffffffffffffff81118015613b4e57600080fd5b50604051908082528060200260200182016040528015613b78578160200160208202803683370190505b50905060005b81518110156139195783613b90610ff8565b8210613b9f5781600101613ba1565b815b81518110613bab57fe5b6020026020010151828281518110613bbf57fe5b6020908102919091010152600101613b7e565b613bde60008383611595565b613bed613997826128086108ae565b6001600160a01b038216600090815260208190526040902054613c10908261228a565b6001600160a01b0383166000818152602081905260408082209390935591519091907fddf252ad1be2c89b69c2b068fc378daa952ba7f163c4a11628f55a4df523b3ef906139e0908590615e0d565b4690565b613c6b610ff8565b811415613c7757610b61565b6000818152600a6020526040902054801561149657600080613c9883612aa0565b9150915080421115610a4c57610a4c84613cb186611c4b565b84611ff1565b60006115768383613177565b600061154760008660600151868686614142565b600061157683836139ec565b6000610844613cf8613cf3610d3a565b61411d565b83906139ec565b60006060600080600080613d11610bc3565b91509150600060606000613d268a86866141b4565b9250925092506000613d3661211a565b5090506000868214613d5157613d4c8285612734565b613d53565b825b949c939b509099509297509095505050505050565b6000613d7f613d75610ff8565b831415606461166a565b613d87610ff8565b8210613d9d57613d988260016115e9565b610844565b5090565b60008088613dbc57613db7888888888888614206565b613dca565b613dca8888888888886142dd565b9150915097509795505050505050565b60008088613df057613db788888888888861433e565b613dca8888888888886143a4565b6000613e0a8686612734565b90506000613e188385612896565b90506000613e268683613177565b905080831115613e74578083036000613e50613e4a83613e4584610e0b565b611552565b8661382d565b90508015613e71576000613e648783613815565b9050613e6f81613365565b505b50505b611300888461337c565b60006115768383612896565b600080613e9f613e98610d3a565b8490614453565b9050610c6983826115e9565b600061154760018660600151868686614142565b6000613ec9611688565b905060005b8181101561149657613edf8161448b565b15613eed57613eed816144ba565b600101613ece565b6000610844826144e8565b600060606000613f0f846144f3565b90506001816002811115613f1f57fe5b1415613f3d57613f3387878a8c8989614509565b9250925050613f8a565b6002816002811115613f4b57fe5b1415613f5c57613f33878a86614568565b6000816002811115613f6a57fe5b1415613f7d57613f3387878a8c88614594565b613f8861015061232d565b505b965096945050505050565b600060606000613fa484613b04565b90506001816003811115613fb457fe5b1415613fc857613f3387878a8c8989614635565b6003816003811115613fd657fe5b1415613fe757613f33878a86614684565b6002816003811115613ff557fe5b141561400857613f3387878a8c886146a2565b613f8861013661232d565b82518251614022908290612415565b60005b818110156140805761406185828151811061403c57fe5b602002602001015185838151811061405057fe5b60200260200101518563ffffffff16565b85828151811061406d57fe5b6020908102919091010152600101614025565b5050505050565b6000610844826140956108ae565b906115e9565b60008060006140b4846140af87600161471c565b612734565b92506140be614825565b156140d7576140cd8486612734565b9150819050614116565b6140df614849565b156140f8578291506140f18486612734565b9050614116565b614107846140af87600061471c565b91506141138486612734565b90505b9250925092565b670de0b6b3a764000081810391100290565b6000611576838360016133a2565b600255565b6000606061414f85613b30565b9050600061415c85613d68565b9050600061416985613d68565b9050600061417561211a565b50905060006141848286612734565b90508a156141a65761419a828686868e8661486d565b955050505050506117ad565b61419a828686868e866148f8565b6000606060008060606141c68861374f565b915091506000806141d8838a8a613788565b9150915060006141e88584613815565b90506141f381613365565b9390930199919850919650945050505050565b6000806060875167ffffffffffffffff8111801561422357600080fd5b5060405190808252806020026020018201604052801561424d578160200160208202803683370190505b5090508881888151811061425d57fe5b6020026020010181815250506000614280878a84898961427b610d3a565b61498b565b90506142a88a8a8a8151811061429257fe5b60200260200101516115e990919063ffffffff16565b8989815181106142b457fe5b602090810291909101015260006142cb87836115e9565b919b919a509098505050505050505050565b60008060006142f88689898c89896142f3610d3a565b614c1b565b905061430a8189898151811061429257fe5b88888151811061431657fe5b6020908102919091010152600061432d868b6115e9565b919a91995090975050505050505050565b60008060006143598689898c8989614354610d3a565b614d0a565b90506143818189898151811061436b57fe5b602002602001015161228a90919063ffffffff16565b88888151811061438d57fe5b6020908102919091010152600061432d868b61228a565b6000806060875167ffffffffffffffff811180156143c157600080fd5b506040519080825280602002602001820160405280156143eb578160200160208202803683370190505b509050888188815181106143fb57fe5b602002602001018181525050600061441e878a848989614419610d3a565b614dd7565b90506144308a8a8a8151811061436b57fe5b89898151811061443c57fe5b602090810291909101015260006142cb878361228a565b600082820261446d84158061156f57508385838161156c57fe5b6001670de0b6b3a76400006001830304018115150291505092915050565b60006108447f000000000000000000000000000000000000000000000000000000000000000060068401612bde565b6000818152600a60205260409020546144d281611637565b6000928352600a60205260409092209190915550565b600061084482615058565b6000818060200190518101906108449190615963565b6000606080600061451985615094565b9150915061452982518851612415565b614536826126ec88613b30565b60006145488989858e8e61427b610d3a565b90506145588282111560cf61166a565b9a91995090975050505050505050565b600060606000614577846150b7565b905060606145868688846150cd565b919791965090945050505050565b600060606000806145a485615166565b915091506145b686518210606461166a565b6060865167ffffffffffffffff811180156145d057600080fd5b506040519080825280602002602001820160405280156145fa578160200160208202803683370190505b50905061460e888884868e8e6142f3610d3a565b81838151811061461a57fe5b60209081029190910101529199919850909650505050505050565b600060608060006146458561517d565b9150915061465587518351612415565b614662826126ec88613b30565b60006146748989858e8e614419610d3a565b90506145588282101560d061166a565b60006060600061469384615195565b905060606145868688846151ab565b600060606000806146b28561523b565b915091506146c486518210606461166a565b6060865167ffffffffffffffff811180156146de57600080fd5b50604051908082528060200260200182016040528015614708578160200160208202803683370190505b50905061460e888884868e8e614354610d3a565b8151606090818167ffffffffffffffff8111801561473957600080fd5b50604051908082528060200260200182016040528015614763578160200160208202803683370190505b50905060005b8281101561481c57600061477b610ff8565b821015614788578161478d565b816001015b905061479881612bb6565b806147af57508580156147af57506147af8161448b565b6147cc578682815181106147bf57fe5b60200260200101516147fc565b6147fc8783815181106147db57fe5b6020026020010151600a600084815260200190815260200160002054615252565b83838151811061480857fe5b602090810291909101015250600101614769565b50949350505050565b7f000000000000000000000000000000000000000000000000000000000000000090565b7f000000000000000000000000000000000000000000000000000000000000000090565b600061487f8387878151811061436b57fe5b86868151811061488b57fe5b60200260200101818152505060006148a58888858861526d565b9050838787815181106148b457fe5b6020026020010151038787815181106148c957fe5b6020026020010181815250506148ea6001614095838a898151811061429257fe5b9150505b9695505050505050565b600061490a8387868151811061429257fe5b86858151811061491657fe5b60200260200101818152505060006149308888858961526d565b90508387868151811061493f57fe5b60200260200101510187868151811061495457fe5b6020026020010181815250506148ea600161280889898151811061497457fe5b6020026020010151846115e990919063ffffffff16565b600080805b87518110156149c9576149bf8882815181106149a857fe5b60200260200101518361228a90919063ffffffff16565b9150600101614990565b506060865167ffffffffffffffff811180156149e457600080fd5b50604051908082528060200260200182016040528015614a0e578160200160208202803683370190505b5090506000805b8951811015614adb576000614a46858c8481518110614a3057fe5b60200260200101516139ec90919063ffffffff16565b9050614a888b8381518110614a5757fe5b6020026020010151614a828c8581518110614a6e57fe5b60200260200101518e868151811061429257fe5b906139ec565b848381518110614a9457fe5b602002602001018181525050614ad0614ac982868581518110614ab357fe5b602002602001015161445390919063ffffffff16565b849061228a565b925050600101614a15565b506060895167ffffffffffffffff81118015614af657600080fd5b50604051908082528060200260200182016040528015614b20578160200160208202803683370190505b50905060005b8a51811015614beb576000848281518110614b3d57fe5b6020026020010151841115614ba4576000614b66614b5a8661411d565b8e85815181106129be57fe5b90506000614b7a828e868151811061429257fe5b9050614b9b614b9482670de0b6b3a76400008d90036139ec565b839061228a565b92505050614bbb565b8a8281518110614bb057fe5b602002602001015190505b614bcb818d848151811061429257fe5b838381518110614bd757fe5b602090810291909101015250600101614b26565b506000614bf88c83612734565b90506000614c06828a612896565b90506132fd614c148261411d565b8b90614453565b600080614c3684614c3087614a82818b6115e9565b90614453565b90506000614c468a8a848b61526d565b90506000614c5a828b8b8151811061429257fe5b90506000805b8b51811015614c8257614c788c82815181106149a857fe5b9150600101614c60565b506000614cab828d8d81518110614c9557fe5b602002602001015161289690919063ffffffff16565b90506000614cb88261411d565b90506000614cc68583614453565b90506000614cd486836115e9565b9050614cf5614cee83670de0b6b3a76400008d9003613177565b829061228a565b98505050505050505050979650505050505050565b600080614d1f84614c3087614a82818b61228a565b90506000614d2f8a8a848b61526d565b90506000614d598a8a81518110614d4257fe5b6020026020010151836115e990919063ffffffff16565b90506000805b8b51811015614d8157614d778c82815181106149a857fe5b9150600101614d5f565b506000614d94828d8d81518110614c9557fe5b90506000614da18261411d565b90506000614daf8583614453565b90506000614dbd86836115e9565b9050614cf5614cee83670de0b6b3a76400008d90036139ec565b600080805b8751811015614dfe57614df48882815181106149a857fe5b9150600101614ddc565b506060865167ffffffffffffffff81118015614e1957600080fd5b50604051908082528060200260200182016040528015614e43578160200160208202803683370190505b5090506000805b8951811015614edd576000614e65858c8481518110614c9557fe5b9050614ea78b8381518110614e7657fe5b6020026020010151614ea18c8581518110614e8d57fe5b60200260200101518e868151811061436b57fe5b90612896565b848381518110614eb357fe5b602002602001018181525050614ed2614ac9828685815181106129be57fe5b925050600101614e4a565b506060895167ffffffffffffffff81118015614ef857600080fd5b50604051908082528060200260200182016040528015614f22578160200160208202803683370190505b50905060005b8a51811015614fe357600083858381518110614f4057fe5b60200260200101511115614f9c576000614f65614b5a86670de0b6b3a76400006115e9565b90506000614f79828e868151811061429257fe5b9050614f93614b9482670de0b6b3a76400008d9003613177565b92505050614fb3565b8a8281518110614fa857fe5b602002602001015190505b614fc3818d848151811061436b57fe5b838381518110614fcf57fe5b602090810291909101015250600101614f28565b506000614ff08c83612734565b90506000614ffe828a612896565b9050670de0b6b3a76400008111156150495761503c8a7ffffffffffffffffffffffffffffffffffffffffffffffffff21f494c589c00008301613177565b96505050505050506148ee565b600096505050505050506148ee565b60006150837ff4b7964d0000000000000000000000000000000000000000000000000000000061102e565b82148061084457506108448261542a565b60606000828060200190518101906150ac919061597e565b909590945092505050565b60008180602001905181019061157691906159c3565b606060006150db8385612896565b9050845167ffffffffffffffff811180156150f557600080fd5b5060405190808252806020026020018201604052801561511f578160200160208202803683370190505b50915060005b855181101561515d5761513e828783815181106129be57fe5b83828151811061514a57fe5b6020908102919091010152600101615125565b50509392505050565b600080828060200190518101906150ac91906159ef565b60606000828060200190518101906150ac9190615a8c565b6000818060200190518101906115769190615aaa565b606060006151b983856139ec565b9050845167ffffffffffffffff811180156151d357600080fd5b506040519080825280602002602001820160405280156151fd578160200160208202803683370190505b50915060005b855181101561515d5761521c82878381518110614ab357fe5b83828151811061522857fe5b6020908102919091010152600101615203565b600080828060200190518101906150ac9190615ac6565b600061157661526484613e4585612a92565b6127cd84612a84565b60008084518602905060008560008151811061528557fe5b6020026020010151905060008651876000815181106152a057fe5b60200260200101510290506000600190505b8751811015615306576152eb6152e56152de848b85815181106152d157fe5b6020026020010151611552565b8a51611552565b8861382d565b91506152fc88828151811061275457fe5b92506001016152b2565b5086858151811061531357fe5b602002602001015182039150600061532b8788611552565b9050600061535761534b61534384610aea8988611552565b6103e8611552565b8a89815181106152d157fe5b9050600061537261536b6153438b8961382d565b869061228a565b905060008061538e615384868661228a565b610aea8d8661228a565b905060005b60ff81101561540e578192506153c36153b0866128088586611552565b610aea8e61409588612808886002611552565b9150828211156153ec576001838303116153e75750975061154a9650505050505050565b615406565b6001828403116154065750975061154a9650505050505050565b600101615393565b5061541a61014261232d565b5050505050505050949350505050565b60006154557f2f1a0bc90000000000000000000000000000000000000000000000000000000061102e565b82148061548957506154867feb0f24d60000000000000000000000000000000000000000000000000000000061102e565b82145b8061084457506108448260006154be7f38e9922e0000000000000000000000000000000000000000000000000000000061102e565b82148061084457506000610844565bfe5b803561084481616065565b600082601f8301126154ea578081fd5b81356154fd6154f88261600d565b615fe6565b81815291506020808301908481018184028601820187101561551e57600080fd5b60005b8481101561288b57813584529282019290820190600101615521565b600082601f83011261554d578081fd5b815161555b6154f88261600d565b81815291506020808301908481018184028601820187101561557c57600080fd5b60005b8481101561288b5781518452928201929082019060010161557f565b600082601f8301126155ab578081fd5b813567ffffffffffffffff8111156155c1578182fd5b6155d46020601f19601f84011601615fe6565b91508082528360208285010111156155eb57600080fd5b8060208401602084013760009082016020015292915050565b80516003811061084457600080fd5b80516004811061084457600080fd5b80356002811061084457600080fd5b600060208284031215615642578081fd5b813561157681616065565b6000806040838503121561565f578081fd5b823561566a81616065565b9150602083013561567a81616065565b809150509250929050565b600080600060608486031215615699578081fd5b83356156a481616065565b925060208401356156b481616065565b929592945050506040919091013590565b600080600080600080600060e0888a0312156156df578283fd5b87356156ea81616065565b965060208801356156fa81616065565b9550604088013594506060880135935060808801356157188161607a565b9699959850939692959460a0840135945060c09093013592915050565b60008060408385031215615747578182fd5b823561575281616065565b946020939093013593505050565b600080600060608486031215615774578081fd5b835167ffffffffffffffff8082111561578b578283fd5b818601915086601f83011261579e578283fd5b81516157ac6154f88261600d565b80828252602080830192508086018b8283870289010111156157cc578788fd5b8796505b848710156157f75780516157e381616065565b8452600196909601959281019281016157d0565b50890151909750935050508082111561580e578283fd5b5061581b8682870161553d565b925050604084015190509250925092565b60006020828403121561583d578081fd5b81518015158114611576578182fd5b60006020828403121561585d578081fd5b5051919050565b600080600080600080600060e0888a03121561587e578081fd5b87359650602088013561589081616065565b955060408801356158a081616065565b9450606088013567ffffffffffffffff808211156158bc578283fd5b6158c88b838c016154da565b955060808a0135945060a08a0135935060c08a01359150808211156158eb578283fd5b506158f88a828b0161559b565b91505092959891949750929550565b600060208284031215615918578081fd5b81357fffffffff0000000000000000000000000000000000000000000000000000000081168114611576578182fd5b600060208284031215615958578081fd5b815161157681616065565b600060208284031215615974578081fd5b6115768383615604565b600080600060608486031215615992578081fd5b61599c8585615604565b9250602084015167ffffffffffffffff8111156159b7578182fd5b61581b8682870161553d565b600080604083850312156159d5578182fd5b6159df8484615604565b9150602083015190509250929050565b600080600060608486031215615a03578081fd5b615a0d8585615604565b925060208401519150604084015190509250925092565b600060208284031215615a35578081fd5b6115768383615613565b60008060408385031215615a51578182fd5b615a5b8484615613565b9150602083015167ffffffffffffffff811115615a76578182fd5b615a828582860161553d565b9150509250929050565b600080600060608486031215615aa0578081fd5b61599c8585615613565b60008060408385031215615abc578182fd5b6159df8484615613565b600080600060608486031215615ada578081fd5b615a0d8585615613565b60008060008060808587031215615af9578182fd5b843567ffffffffffffffff80821115615b10578384fd5b818701915061012080838a031215615b26578485fd5b615b2f81615fe6565b9050615b3b8984615622565b8152615b4a89602085016154cf565b6020820152615b5c89604085016154cf565b6040820152606083013560608201526080830135608082015260a083013560a0820152615b8c8960c085016154cf565b60c0820152615b9e8960e085016154cf565b60e08201526101008084013583811115615bb6578687fd5b615bc28b82870161559b565b828401525050809650506020870135915080821115615bdf578384fd5b50615bec878288016154da565b949794965050505060408301359260600135919050565b600060208284031215615c14578081fd5b5035919050565b60008060408385031215615c2d578182fd5b50508035926020909101359150565b600060208284031215615c4d578081fd5b81516115768161607a565b60008060408385031215615c6a578182fd5b8251615c758161607a565b6020939093015192949293505050565b6000815180845260208085019450808401835b83811015615cb457815187529582019590820190600101615c98565b509495945050505050565b9182527fffffffff0000000000000000000000000000000000000000000000000000000016602082015260240190565b6000828483379101908152919050565b60008251615d11818460208701616039565b9190910192915050565b7f190100000000000000000000000000000000000000000000000000000000000081526002810192909252602282015260420190565b6001600160a01b0391909116815260200190565b6020808252825182820181905260009190848201906040850190845b81811015615da65783516001600160a01b031683529284019291840191600101615d81565b50909695505050505050565b6000602082526115766020830184615c85565b600060408252615dd86040830185615c85565b82810360208401526117ad8185615c85565b901515815260200190565b92151583526020830191909152604082015260600190565b90815260200190565b9283526001600160a01b03918216602084015216604082015260600190565b9586526001600160a01b0394851660208701529290931660408501526060840152608083019190915260a082015260c00190565b60006060820185835260206060818501528186518084526080860191508288019350845b81811015615eb157615e9f855161602d565b83529383019391830191600101615e8d565b505084810360408601528551808252908201925081860190845b81811015612f5c57615edd835161602d565b85529383019391830191600101615ecb565b9485526020850193909352604084019190915260608301526001600160a01b0316608082015260a00190565b93845260ff9290921660208401526040830152606082015260800190565b6020810160038310615f4757fe5b91905290565b60ff91909116815260200190565b6000602082528251806020840152615f7a816040850160208701616039565b601f01601f19169190910160400192915050565b60008382526040602083015261154a6040830184615c85565b9283529015156020830152604082015260600190565b918252602082015260400190565b93845260208401929092526040830152606082015260800190565b60405181810167ffffffffffffffff8111828210171561600557600080fd5b604052919050565b600067ffffffffffffffff821115616023578081fd5b5060209081020190565b6001600160a01b031690565b60005b8381101561605457818101518382015260200161603c565b83811115610a4c5750506000910152565b6001600160a01b0381168114610b6157600080fd5b60ff81168114610b6157600080fdfea264697066735822122086e4658f0f5c92aea1a47a631c23c60c6f51dad176eb18136d5f5537a4fee56b64736f6c63430007010033",
    "linkReferences": {},
    "deployedLinkReferences": {}
}